:100000000C9434000C9449000C9449000C94490061
:100010000C9449000C9449000C9449000C9449003C
:100020000C9449000C9449000C9449000C9449002C
:100030000C9449000C9449000C9449000C9449001C
:100040000C9449000C9449000C9449000C9449000C
:100050000C9449000C9449000C9449000C944900FC
:100060000C9449000C94490011241FBECFEFD8E036
:10007000DEBFCDBF11E0A0E0B1E0E6E8F4E002C0F1
:1000800005900D92AE32B107D9F70E94D2010C94BF
:1000900041020C9400001092C50087E68093C400D2
:1000A000E0ECF0E080818D7F808388E18093C10067
:1000B00086E08093C20008959091C00095FFFCCF28
:1000C0008093C60008958091C00087FFFCCF809187
:1000D000C60008950F931F93CF938C01C0E0F801E1
:1000E000EC0FF11D8081882321F00E945C00CF5F1E
:1000F000F6CFCF911F910F910895CF92DF92EF929B
:10010000FF920F931F93CF93DF936C01F12C062F77
:1001100010E001501109CF2DD0E0C017D10744F4F1
:100120000E946300E82E0E945C008DE0E8120CC083
:10013000CC0DDD1D1882DF91CF911F910F91FF90A3
:10014000EF90DF90CF900895CC0DDD1DE882F39401
:10015000E2CFCF93C82F64E60E942102805D0E9407
:100160005C002AE08C2F622F0E942102C92F0E947E
:10017000210280E3890F0E945C0080E38C0FCF9105
:100180000C945C000F931F93CF93DF938C0160E17D
:1001900077E20E942D0280E3860F0E945C00C80176
:1001A00068EE73E00E942D02CB01CAE0D0E0BE01F0
:1001B0000E942D02805D0E945C00C80164E670E030
:1001C0000E942D02CB01BE010E942D02805D0E9483
:1001D0005C00C801BE010E942D02182FCB01BE0198
:1001E0000E942D02805D0E945C0080E3810FDF9100
:1001F000CF911F910F910C945C001F93CF93DF93CD
:100200001F92CDB7DEB7898317E0898190E0012E78
:1002100002C0959587950A94E2F780FF02C081E3BA
:1002200001C080E30E945C00115078F70F90DF91CD
:10023000CF911F9108958A3010F4805D0895895CF4
:100240000895CF93C82F82958F700E941B010E9442
:100250005C008C2F8F700E941B01CF910C945C006E
:100260000F931F93CF93DF93D0E3C0E310E30E947B
:100270006300082F0E945C000D3021F01C2FCD2F51
:10028000D02FF5CF1053D05384E6189FD00D1124F2
:10029000CC0FC0568C2F880F880F8C0F8D0FDF91DD
:1002A000CF911F910F9108951092B90088E4809327
:1002B000B800089594EA9093BC009091BC0097FF19
:1002C000FCCF9091B900987F983021F0903111F0D7
:1002D00081E008958093BB0084E88093BC00809106
:1002E000BC0087FFFCCF8091B900887F883111F076
:1002F000803471F780E0089524EA34E844E92093DB
:10030000BC009091BC0097FFFCCF9091B900987F02
:10031000983011F0903199F78093BB003093BC0076
:100320009091BC0097FFFCCF9091B900987F9032DC
:1003300011F0983539F44093BC009091BC0094FDC5
:10034000FCCFDDCF08950C945A0184E98093BC0062
:100350008091BC0084FDFCCF08958093BB0084E8AD
:100360008093BC008091BC0087FFFCCF9091B900C6
:10037000987F81E0983209F480E0089584EC8093BE
:10038000BC008091BC0087FFFCCF8091BB0008952A
:1003900084E88093BC008091BC0087FFFCCF8091F3
:1003A000BB0008950E9454010E944B0080E091E040
:1003B0000E946A008AE00E945C0080E80E945A0164
:1003C000182F84E00E94AD010E94A5018FE59AEEEE
:1003D0000197F1F700C0000081E80E945A01082F40
:1003E0000E94BE01D82F0E94C801C82F0E94A501FB
:1003F0008FE59AEE0197F1F700C000008EE091E0E2
:100400000E946A008AE00E945C00802F0E94A9007E
:100410008AE00E945C00812F0E94A9008AE00E946D
:100420005C008D2F0E94A9008C2F0E94A9008AE0F9
:100430000E945C008FE59AEE0197F1F700C0000082
:10044000B5CF991B79E004C0991F961708F0961B49
:10045000881F7A95C9F780950895AA1BBB1B51E1A7
:1004600007C0AA1FBB1FA617B70710F0A61BB70B24
:10047000881F991F5A95A9F780959095BC01CD01C9
:060480000895F894FFCF7F
:1004860053657269616C576F726B696E670053755D
:1004960070706F73656420746F205072696E74207B
:0E04A6004932432064617461206E65787400F1
:00000001FF
