:100000000C9434000C9449000C9449000C94490061
:100010000C9449000C9449000C9449000C9449003C
:100020000C9449000C9449000C9449000C9449002C
:100030000C9449000C9449000C9449000C9449001C
:100040000C9449000C9449000C9449000C9449000C
:100050000C9449000C9449000C9449000C944900FC
:100060000C9449000C94490011241FBECFEFD8E036
:10007000DEBFCDBF11E0A0E0B1E0E2E6F4E002C0F7
:1000800005900D92A833B107D9F70E94BA010C94DC
:100090002F020C9400001092C50087E68093C400E4
:1000A000E0ECF0E080818D7F808388E18093C10067
:1000B00086E08093C20008959091C00095FFFCCF28
:1000C0008093C60008958091C00087FFFCCF809187
:1000D000C60008950F931F93CF938C01C0E0F801E1
:1000E000EC0FF11D8081882321F00E945C00CF5F1E
:1000F000F6CFCF911F910F910895CF92DF92EF929B
:10010000FF920F931F93CF93DF936C01F12C062F77
:1001100010E001501109CF2DD0E0C017D10744F4F1
:100120000E946300E82E0E945C008DE0E8120CC083
:10013000CC0DDD1D1882DF91CF911F910F91FF90A3
:10014000EF90DF90CF900895CC0DDD1DE882F39401
:10015000E2CFCF93C82F64E60E940F02805D0E9419
:100160005C002AE08C2F622F0E940F02C92F0E9490
:100170000F0280E3890F0E945C0080E38C0FCF9117
:100180000C945C000F931F93CF93DF938C0160E17D
:1001900077E20E941B0280E3860F0E945C00C80188
:1001A00068EE73E00E941B02CB01CAE0D0E0BE0102
:1001B0000E941B02805D0E945C00C80164E670E042
:1001C0000E941B02CB01BE010E941B02805D0E94A7
:1001D0005C00C801BE010E941B02182FCB01BE01AA
:1001E0000E941B02805D0E945C0080E3810FDF9112
:1001F000CF911F910F910C945C001F93CF93DF93CD
:100200001F92CDB7DEB7898317E0898190E0012E78
:1002100002C0959587950A94E2F780FF02C081E3BA
:1002200001C080E30E945C00115078F70F90DF91CD
:10023000CF911F9108958A3010F4805D0895895CF4
:100240000895CF93C82F82958F700E941B010E9442
:100250005C008C2F8F700E941B01CF910C945C006E
:100260000F931F93CF93DF93D0E3C0E310E30E947B
:100270006300082F0E945C000D3021F01C2FCD2F51
:10028000D02FF5CF1053D05384E6189FD00D1124F2
:10029000CC0FC0568C2F880F880F8C0F8D0FDF91DD
:1002A000CF911F910F9108958F9381E19927019725
:1002B000F1F78F9108953C983D984498459808959A
:1002C0003C9AF2DF1DD008953D9AEEDF3C98ECDFBA
:1002D0003D98EADF3C9AE8DF13D00895082E3C9A57
:1002E000E3DF802D0DD0882311F002D0F8CF0895E0
:1002F0003D9A3C9AD9DF3D98D7DF3C98D5DF0895E9
:100300000894881F01C0880F59F03D9A18F4000026
:100310003C9802C03C9A00C0C7DF3D98C5DFF3CFD0
:100320003D9A3C98C1DF3D98359BFECF8827349994
:1003300081E0BADF99270895882701C081E071E044
:100340003D9A3C98B1DF3D98AFDF359BFECF889456
:1003500034990894771FA0F73D9A813011F03C98AA
:1003600001C03C9AA1DF3D98359BFECF9DDF872FD2
:100370009927089580E091E0D82F85E091E0C82F7B
:100380000E945B010E944B008AE091E00E946A009B
:100390008AE00E945C008D2F0E946001F82E84E0AC
:1003A0000E9480010E9478018FE59AEE0197F1F793
:1003B00000C000008C2F0E946401E82E0E949E0164
:1003C000082F0E949C01182F0E9478018FE59AEE59
:1003D0000197F1F700C0000088E191E00E946A00F7
:1003E0008AE00E945C008E2D0E94A9008AE00E9493
:1003F0005C008F2D0E94A9008AE00E945C00802F83
:100400000E94A900812F0E94A9008AE00E945C003E
:100410008FE59AEE0197F1F700C00000B5CF991B68
:1004200079E004C0991F961708F0961B881F7A95EB
:10043000C9F780950895AA1BBB1B51E107C0AA1FED
:10044000BB1FA617B70710F0A61BB70B881F991F75
:100450005A95A9F780959095BC01CD010895F8941F
:02046000FFCFCC
:100462003078383000307838310053657269616C09
:10047200576F726B696E6700537570706F73656446
:1004820020746F205072696E742049324320646177
:080492007461206E65787400AE
:00000001FF
